{
  "_format": "hh-sol-artifact-1",
  "contractName": "ERC20Tornado",
  "sourceName": "contracts/ERC20Tornado.sol",
  "abi": [
    {
      "inputs": [
        {
          "internalType": "contract IVerifier",
          "name": "_verifier",
          "type": "address"
        },
        {
          "internalType": "contract IHasher",
          "name": "_hasher",
          "type": "address"
        },
        {
          "internalType": "uint256",
          "name": "_denomination",
          "type": "uint256"
        },
        {
          "internalType": "uint32",
          "name": "_merkleTreeHeight",
          "type": "uint32"
        },
        {
          "internalType": "contract IERC20",
          "name": "_token",
          "type": "address"
        }
      ],
      "stateMutability": "nonpayable",
      "type": "constructor"
    },
    {
      "anonymous": false,
      "inputs": [
        {
          "indexed": true,
          "internalType": "bytes32",
          "name": "commitment",
          "type": "bytes32"
        },
        {
          "indexed": false,
          "internalType": "uint32",
          "name": "leafIndex",
          "type": "uint32"
        },
        {
          "indexed": false,
          "internalType": "uint256",
          "name": "timestamp",
          "type": "uint256"
        }
      ],
      "name": "Deposit",
      "type": "event"
    },
    {
      "anonymous": false,
      "inputs": [
        {
          "indexed": false,
          "internalType": "address",
          "name": "to",
          "type": "address"
        },
        {
          "indexed": false,
          "internalType": "bytes32",
          "name": "nullifierHash",
          "type": "bytes32"
        },
        {
          "indexed": true,
          "internalType": "address",
          "name": "relayer",
          "type": "address"
        },
        {
          "indexed": false,
          "internalType": "uint256",
          "name": "fee",
          "type": "uint256"
        }
      ],
      "name": "Withdrawal",
      "type": "event"
    },
    {
      "inputs": [],
      "name": "FIELD_SIZE",
      "outputs": [
        {
          "internalType": "uint256",
          "name": "",
          "type": "uint256"
        }
      ],
      "stateMutability": "view",
      "type": "function"
    },
    {
      "inputs": [],
      "name": "ROOT_HISTORY_SIZE",
      "outputs": [
        {
          "internalType": "uint32",
          "name": "",
          "type": "uint32"
        }
      ],
      "stateMutability": "view",
      "type": "function"
    },
    {
      "inputs": [],
      "name": "ZERO_VALUE",
      "outputs": [
        {
          "internalType": "uint256",
          "name": "",
          "type": "uint256"
        }
      ],
      "stateMutability": "view",
      "type": "function"
    },
    {
      "inputs": [
        {
          "internalType": "bytes32",
          "name": "",
          "type": "bytes32"
        }
      ],
      "name": "commitments",
      "outputs": [
        {
          "internalType": "bool",
          "name": "",
          "type": "bool"
        }
      ],
      "stateMutability": "view",
      "type": "function"
    },
    {
      "inputs": [],
      "name": "currentRootIndex",
      "outputs": [
        {
          "internalType": "uint32",
          "name": "",
          "type": "uint32"
        }
      ],
      "stateMutability": "view",
      "type": "function"
    },
    {
      "inputs": [],
      "name": "denomination",
      "outputs": [
        {
          "internalType": "uint256",
          "name": "",
          "type": "uint256"
        }
      ],
      "stateMutability": "view",
      "type": "function"
    },
    {
      "inputs": [
        {
          "internalType": "bytes32",
          "name": "_commitment",
          "type": "bytes32"
        }
      ],
      "name": "deposit",
      "outputs": [],
      "stateMutability": "payable",
      "type": "function"
    },
    {
      "inputs": [
        {
          "internalType": "uint256",
          "name": "",
          "type": "uint256"
        }
      ],
      "name": "filledSubtrees",
      "outputs": [
        {
          "internalType": "bytes32",
          "name": "",
          "type": "bytes32"
        }
      ],
      "stateMutability": "view",
      "type": "function"
    },
    {
      "inputs": [],
      "name": "getLastRoot",
      "outputs": [
        {
          "internalType": "bytes32",
          "name": "",
          "type": "bytes32"
        }
      ],
      "stateMutability": "view",
      "type": "function"
    },
    {
      "inputs": [
        {
          "internalType": "contract IHasher",
          "name": "_hasher",
          "type": "address"
        },
        {
          "internalType": "bytes32",
          "name": "_left",
          "type": "bytes32"
        },
        {
          "internalType": "bytes32",
          "name": "_right",
          "type": "bytes32"
        }
      ],
      "name": "hashLeftRight",
      "outputs": [
        {
          "internalType": "bytes32",
          "name": "",
          "type": "bytes32"
        }
      ],
      "stateMutability": "pure",
      "type": "function"
    },
    {
      "inputs": [],
      "name": "hasher",
      "outputs": [
        {
          "internalType": "contract IHasher",
          "name": "",
          "type": "address"
        }
      ],
      "stateMutability": "view",
      "type": "function"
    },
    {
      "inputs": [
        {
          "internalType": "bytes32",
          "name": "_leaf",
          "type": "bytes32"
        }
      ],
      "name": "insert",
      "outputs": [
        {
          "internalType": "uint32",
          "name": "",
          "type": "uint32"
        }
      ],
      "stateMutability": "nonpayable",
      "type": "function"
    },
    {
      "inputs": [
        {
          "internalType": "bytes32",
          "name": "_root",
          "type": "bytes32"
        }
      ],
      "name": "isKnownRoot",
      "outputs": [
        {
          "internalType": "bool",
          "name": "",
          "type": "bool"
        }
      ],
      "stateMutability": "view",
      "type": "function"
    },
    {
      "inputs": [
        {
          "internalType": "bytes32",
          "name": "_nullifierHash",
          "type": "bytes32"
        }
      ],
      "name": "isSpent",
      "outputs": [
        {
          "internalType": "bool",
          "name": "",
          "type": "bool"
        }
      ],
      "stateMutability": "view",
      "type": "function"
    },
    {
      "inputs": [
        {
          "internalType": "bytes32[]",
          "name": "_nullifierHashes",
          "type": "bytes32[]"
        }
      ],
      "name": "isSpentArray",
      "outputs": [
        {
          "internalType": "bool[]",
          "name": "spent",
          "type": "bool[]"
        }
      ],
      "stateMutability": "view",
      "type": "function"
    },
    {
      "inputs": [],
      "name": "levels",
      "outputs": [
        {
          "internalType": "uint32",
          "name": "",
          "type": "uint32"
        }
      ],
      "stateMutability": "view",
      "type": "function"
    },
    {
      "inputs": [],
      "name": "nextIndex",
      "outputs": [
        {
          "internalType": "uint32",
          "name": "",
          "type": "uint32"
        }
      ],
      "stateMutability": "view",
      "type": "function"
    },
    {
      "inputs": [
        {
          "internalType": "bytes32",
          "name": "",
          "type": "bytes32"
        }
      ],
      "name": "nullifierHashes",
      "outputs": [
        {
          "internalType": "bool",
          "name": "",
          "type": "bool"
        }
      ],
      "stateMutability": "view",
      "type": "function"
    },
    {
      "inputs": [
        {
          "internalType": "uint256",
          "name": "",
          "type": "uint256"
        }
      ],
      "name": "roots",
      "outputs": [
        {
          "internalType": "bytes32",
          "name": "",
          "type": "bytes32"
        }
      ],
      "stateMutability": "view",
      "type": "function"
    },
    {
      "inputs": [],
      "name": "token",
      "outputs": [
        {
          "internalType": "contract IERC20",
          "name": "",
          "type": "address"
        }
      ],
      "stateMutability": "view",
      "type": "function"
    },
    {
      "inputs": [],
      "name": "verifier",
      "outputs": [
        {
          "internalType": "contract IVerifier",
          "name": "",
          "type": "address"
        }
      ],
      "stateMutability": "view",
      "type": "function"
    },
    {
      "inputs": [
        {
          "internalType": "uint256[2]",
          "name": "_pA",
          "type": "uint256[2]"
        },
        {
          "internalType": "uint256[2][2]",
          "name": "_pB",
          "type": "uint256[2][2]"
        },
        {
          "internalType": "uint256[2]",
          "name": "_pC",
          "type": "uint256[2]"
        },
        {
          "internalType": "bytes32",
          "name": "_root",
          "type": "bytes32"
        },
        {
          "internalType": "bytes32",
          "name": "_nullifierHash",
          "type": "bytes32"
        },
        {
          "internalType": "address",
          "name": "_recipient",
          "type": "address"
        },
        {
          "internalType": "address",
          "name": "_relayer",
          "type": "address"
        },
        {
          "internalType": "uint256",
          "name": "_fee",
          "type": "uint256"
        },
        {
          "internalType": "uint256",
          "name": "_refund",
          "type": "uint256"
        }
      ],
      "name": "withdraw",
      "outputs": [],
      "stateMutability": "payable",
      "type": "function"
    },
    {
      "inputs": [
        {
          "internalType": "uint256",
          "name": "i",
          "type": "uint256"
        }
      ],
      "name": "zeros",
      "outputs": [
        {
          "internalType": "bytes32",
          "name": "",
          "type": "bytes32"
        }
      ],
      "stateMutability": "pure",
      "type": "function"
    }
  ],
  "bytecode": "0x60c06040526000600360006101000a81548163ffffffff021916908363ffffffff1602179055506000600360046101000a81548163ffffffff021916908363ffffffff16021790555034801561005457600080fd5b5060405161429d38038061429d83398181016040528101906100769190610aca565b84848484808360008263ffffffff16116100c5576040517f08c379a00000000000000000000000000000000000000000000000000000000081526004016100bc90610bc8565b60405180910390fd5b60208263ffffffff161061010e576040517f08c379a000000000000000000000000000000000000000000000000000000000815260040161010590610c34565b60405180910390fd5b816000806101000a81548163ffffffff021916908363ffffffff1602179055508073ffffffffffffffffffffffffffffffffffffffff1660808173ffffffffffffffffffffffffffffffffffffffff168152505060005b8263ffffffff168163ffffffff1610156101b85761018e8163ffffffff166102c860201b60201c565b600160008363ffffffff168152602001908152602001600020819055508080600101915050610165565b506101da6001836101c99190610c83565b63ffffffff166102c860201b60201c565b6002600080815260200190815260200160002081905550505060016004819055506000821161023e576040517f08c379a000000000000000000000000000000000000000000000000000000000815260040161023590610d2d565b60405180910390fd5b8373ffffffffffffffffffffffffffffffffffffffff1660a08173ffffffffffffffffffffffffffffffffffffffff1681525050816005819055505050505080600860006101000a81548173ffffffffffffffffffffffffffffffffffffffff021916908373ffffffffffffffffffffffffffffffffffffffff1602179055505050505050610db9565b60008082036102fc577f2fe54c60d3acabf3343a35b6eba15db4821b340f76e741e2249685ed4899af6c60001b9050610962565b6001820361032f577f256a6135777eee2fd26f54b8b7037a25439d5235caee224154186d2b8a52e31d60001b9050610962565b60028203610362577f1151949895e82ab19924de92c40a3d6f7bcb60d92b00504b8199613683f0c20060001b9050610962565b60038203610395577f20121ee811489ff8d61f09fb89e313f14959a0f28bb428a20dba6b0b068b3bdb60001b9050610962565b600482036103c8577f0a89ca6ffa14cc462cfedb842c30ed221a50a3d6bf022a6a57dc82ab24c157c960001b9050610962565b600582036103fb577f24ca05c2b5cd42e890d6be94c68d0689f4f21c9cec9c0f13fe41d566dfb5495960001b9050610962565b6006820361042e577f1ccb97c932565a92c60156bdba2d08f3bf1377464e025cee765679e604a7315c60001b9050610962565b60078203610461577f19156fbd7d1a8bf5cba8909367de1b624534ebab4f0f79e003bccdd1b182bdb460001b9050610962565b60088203610494577f261af8c1f0912e465744641409f622d466c3920ac6e5ff37e36604cb11dfff8060001b9050610962565b600982036104c6577e58459724ff6ca5a1652fcbc3e82b93895cf08e975b19beab3f54c217d1c00760001b9050610962565b600a82036104f9577f1f04ef20dee48d39984d8eabe768a70eafa6310ad20849d4573c3c40c2ad1e3060001b9050610962565b600b820361052c577f1bea3dec5dab51567ce7e200a30f7ba6d4276aeaa53e2686f962a46c66d511e560001b9050610962565b600c820361055f577f0ee0f941e2da4b9e31c3ca97a40d8fa9ce68d97c084177071b3cb46cd3372f0f60001b9050610962565b600d8203610592577f1ca9503e8935884501bbaf20be14eb4c46b89772c97b96e3b2ebf3a36a948bbd60001b9050610962565b600e82036105c5577f133a80e30697cd55d8f7d4b0965b7be24057ba5dc3da898ee2187232446cb10860001b9050610962565b600f82036105f8577f13e6d8fc88839ed76e182c2a779af5b2c0da9dd18c90427a644f7e148a6253b660001b9050610962565b6010820361062b577f1eb16b057a477f4bc8f572ea6bee39561098f78f15bfb3699dcbb7bd8db6185460001b9050610962565b6011820361065e577f0da2cb16a1ceaabf1c16b838f7a9e3f2a3a3088d9e0a6debaa748114620696ea60001b9050610962565b60128203610691577f24a3b3d822420b14b5d8cb6c28a574f01e98ea9e940551d2ebd75cee12649f9d60001b9050610962565b601382036106c4577f198622acbd783d1b0d9064105b1fc8e4d8889de95c4c519b3f635809fe6afc0560001b9050610962565b601482036106f7577f29d7ed391256ccc3ea596c86e933b89ff339d25ea8ddced975ae2fe30b5296d460001b9050610962565b6015820361072a577f19be59f2f0413ce78c0c3703a3a5451b1d7f39629fa33abd11548a76065b296760001b9050610962565b6016820361075d577f1ff3f61797e538b70e619310d33f2a063e7eb59104e112e95738da1254dc345360001b9050610962565b60178203610790577f10c16ae9959cf8358980d9dd9616e48228737310a10e2b6b731c1a548f036c4860001b9050610962565b601882036107c3577f0ba433a63174a90ac20992e75e3095496812b652685b5e1a2eae0b1bf4e8fcd160001b9050610962565b601982036107f6577f019ddb9df2bc98d987d0dfeca9d2b643deafab8f7036562e627c3667266a044c60001b9050610962565b601a8203610829577f2d3c88b23175c5a5565db928414c66d1912b11acf974b2e644caaac04739ce9960001b9050610962565b601b820361085c577f2eab55f6ae4e66e32c5189eed5c470840863445760f5ed7e7b69b2a62600f35460001b9050610962565b601c820361088e577e2df37a2642621802383cf952bf4dd1f32e05433beeb1fd41031fb7eace979d60001b9050610962565b601d82036108c1577f104aeb41435db66c3e62feccc1d6f5d98d0a0ed75d1374db457cf462e3a1f42760001b9050610962565b601e82036108f4577f1f3c6fd858e9a7d4b0d1f38e256a09d81d5a5e3c963987e2d4b814cfab7c6ebb60001b9050610962565b601f8203610927577f2c7a07d20dff79d01fecedc1134284a8d08436606c93693b67e333f671bf69cc60001b9050610962565b6040517f08c379a000000000000000000000000000000000000000000000000000000000815260040161095990610d99565b60405180910390fd5b919050565b600080fd5b600073ffffffffffffffffffffffffffffffffffffffff82169050919050565b60006109978261096c565b9050919050565b60006109a98261098c565b9050919050565b6109b98161099e565b81146109c457600080fd5b50565b6000815190506109d6816109b0565b92915050565b60006109e78261098c565b9050919050565b6109f7816109dc565b8114610a0257600080fd5b50565b600081519050610a14816109ee565b92915050565b6000819050919050565b610a2d81610a1a565b8114610a3857600080fd5b50565b600081519050610a4a81610a24565b92915050565b600063ffffffff82169050919050565b610a6981610a50565b8114610a7457600080fd5b50565b600081519050610a8681610a60565b92915050565b6000610a978261098c565b9050919050565b610aa781610a8c565b8114610ab257600080fd5b50565b600081519050610ac481610a9e565b92915050565b600080600080600060a08688031215610ae657610ae5610967565b5b6000610af4888289016109c7565b9550506020610b0588828901610a05565b9450506040610b1688828901610a3b565b9350506060610b2788828901610a77565b9250506080610b3888828901610ab5565b9150509295509295909350565b600082825260208201905092915050565b7f5f6c6576656c732073686f756c642062652067726561746572207468616e207a60008201527f65726f0000000000000000000000000000000000000000000000000000000000602082015250565b6000610bb2602383610b45565b9150610bbd82610b56565b604082019050919050565b60006020820190508181036000830152610be181610ba5565b9050919050565b7f5f6c6576656c732073686f756c64206265206c657373207468616e2033320000600082015250565b6000610c1e601e83610b45565b9150610c2982610be8565b602082019050919050565b60006020820190508181036000830152610c4d81610c11565b9050919050565b7f4e487b7100000000000000000000000000000000000000000000000000000000600052601160045260246000fd5b6000610c8e82610a50565b9150610c9983610a50565b9250828203905063ffffffff811115610cb557610cb4610c54565b5b92915050565b7f64656e6f6d696e6174696f6e2073686f756c642062652067726561746572207460008201527f68616e2030000000000000000000000000000000000000000000000000000000602082015250565b6000610d17602583610b45565b9150610d2282610cbb565b604082019050919050565b60006020820190508181036000830152610d4681610d0a565b9050919050565b7f496e646578206f7574206f6620626f756e647300000000000000000000000000600082015250565b6000610d83601383610b45565b9150610d8e82610d4d565b602082019050919050565b60006020820190508181036000830152610db281610d76565b9050919050565b60805160a0516134b1610dec6000396000818161071501526108ef015260008181611591015261195601526134b16000f3fe6080604052600436106101405760003560e01c80639fa12d0b116100b6578063e82955881161006f578063e829558814610492578063ec732959146104cf578063ed33639f146104fa578063f178e47c14610525578063fc0c546a14610562578063fc7e9c6f1461058d57610140565b80639fa12d0b14610369578063b214faa5146103a6578063ba70f757146103c2578063c2b40ae4146103ed578063cd87a3b41461042a578063e5285dcc1461045557610140565b80634ecf518b116101085780634ecf518b146102315780636d9833e31461025c578063839df945146102995780638bca6d16146102d65780638ea3099e1461030157806390eeb02b1461033e57610140565b806317cc915c146101455780632aa4eeec146101825780632b7ac3f31461019e5780632d287e43146101c9578063414a37ba14610206575b600080fd5b34801561015157600080fd5b5061016c60048036038101906101679190611ebe565b6105b8565b6040516101799190611f06565b60405180910390f35b61019c60048036038101906101979190611ffe565b6105d8565b005b3480156101aa57600080fd5b506101b36108ed565b6040516101c0919061212c565b60405180910390f35b3480156101d557600080fd5b506101f060048036038101906101eb9190611ebe565b610911565b6040516101fd9190612166565b60405180910390f35b34801561021257600080fd5b5061021b610923565b6040516102289190612190565b60405180910390f35b34801561023d57600080fd5b50610246610947565b6040516102539190612166565b60405180910390f35b34801561026857600080fd5b50610283600480360381019061027e9190611ebe565b61095b565b6040516102909190611f06565b60405180910390f35b3480156102a557600080fd5b506102c060048036038101906102bb9190611ebe565b6109f8565b6040516102cd9190611f06565b60405180910390f35b3480156102e257600080fd5b506102eb610a18565b6040516102f89190612190565b60405180910390f35b34801561030d57600080fd5b50610328600480360381019061032391906121e9565b610a1e565b604051610335919061224b565b60405180910390f35b34801561034a57600080fd5b50610353610c46565b6040516103609190612166565b60405180910390f35b34801561037557600080fd5b50610390600480360381019061038b91906122c6565b610c5c565b60405161039d91906123d1565b60405180910390f35b6103c060048036038101906103bb9190611ebe565b610d1d565b005b3480156103ce57600080fd5b506103d7610e52565b6040516103e4919061224b565b60405180910390f35b3480156103f957600080fd5b50610414600480360381019061040f91906123f3565b610e85565b604051610421919061224b565b60405180910390f35b34801561043657600080fd5b5061043f610e9d565b60405161044c9190612166565b60405180910390f35b34801561046157600080fd5b5061047c60048036038101906104779190611ebe565b610ea2565b6040516104899190611f06565b60405180910390f35b34801561049e57600080fd5b506104b960048036038101906104b491906123f3565b610ecc565b6040516104c6919061224b565b60405180910390f35b3480156104db57600080fd5b506104e461156b565b6040516104f19190612190565b60405180910390f35b34801561050657600080fd5b5061050f61158f565b60405161051c9190612441565b60405180910390f35b34801561053157600080fd5b5061054c600480360381019061054791906123f3565b6115b3565b604051610559919061224b565b60405180910390f35b34801561056e57600080fd5b506105776115cb565b604051610584919061247d565b60405180910390f35b34801561059957600080fd5b506105a26115f1565b6040516105af9190612166565b60405180910390f35b60066020528060005260406000206000915054906101000a900460ff1681565b60026004540361061d576040517f08c379a0000000000000000000000000000000000000000000000000000000008152600401610614906124f5565b60405180910390fd5b600260048190555060055482111561066a576040517f08c379a000000000000000000000000000000000000000000000000000000000815260040161066190612561565b60405180910390fd5b6006600086815260200190815260200160002060009054906101000a900460ff16156106cb576040517f08c379a00000000000000000000000000000000000000000000000000000000081526004016106c2906125cd565b60405180910390fd5b6106d48661095b565b610713576040517f08c379a000000000000000000000000000000000000000000000000000000000815260040161070a90612639565b60405180910390fd5b7f000000000000000000000000000000000000000000000000000000000000000073ffffffffffffffffffffffffffffffffffffffff1663f398789b8a8a8a6040518060c001604052808c60001c81526020018b60001c81526020018a73ffffffffffffffffffffffffffffffffffffffff1681526020018973ffffffffffffffffffffffffffffffffffffffff168152602001888152602001878152506040518563ffffffff1660e01b81526004016107d094939291906127dc565b602060405180830381865afa1580156107ed573d6000803e3d6000fd5b505050506040513d601f19601f82011682018060405250810190610811919061284f565b610850576040517f08c379a0000000000000000000000000000000000000000000000000000000008152600401610847906128c8565b60405180910390fd5b60016006600087815260200190815260200160002060006101000a81548160ff02191690831515021790555061088884848484611607565b8273ffffffffffffffffffffffffffffffffffffffff167fe9e508bad6d4c3227e881ca19068f099da81b5164dd6d62b2eaf1e8bc6c349318587856040516108d2939291906128f7565b60405180910390a26001600481905550505050505050505050565b7f000000000000000000000000000000000000000000000000000000000000000081565b600061091c8261182a565b9050919050565b7f30644e72e131a029b85045b68181585d2833e84879b9709143e1f593f000000181565b60008054906101000a900463ffffffff1681565b60008060001b820361097057600090506109f3565b6000600360009054906101000a900463ffffffff16905060008190505b600260008263ffffffff1681526020019081526020016000205484036109b8576001925050506109f3565b60008163ffffffff16036109cb57601e90505b80806109d69061295d565b9150508163ffffffff168163ffffffff160361098d576000925050505b919050565b60076020528060005260406000206000915054906101000a900460ff1681565b60055481565b60007f30644e72e131a029b85045b68181585d2833e84879b9709143e1f593f00000018360001c10610a85576040517f08c379a0000000000000000000000000000000000000000000000000000000008152600401610a7c906129d2565b60405180910390fd5b7f30644e72e131a029b85045b68181585d2833e84879b9709143e1f593f00000018260001c10610aea576040517f08c379a0000000000000000000000000000000000000000000000000000000008152600401610ae190612a64565b60405180910390fd5b60008360001c905060008573ffffffffffffffffffffffffffffffffffffffff16633f1a1187838360006040518463ffffffff1660e01b8152600401610b3293929190612abf565b6040805180830381865afa158015610b4e573d6000803e3d6000fd5b505050506040513d601f19601f82011682018060405250810190610b729190612b0b565b80925081935050507f30644e72e131a029b85045b68181585d2833e84879b9709143e1f593f000000180610ba957610ba8612b4b565b5b8460001c830891508573ffffffffffffffffffffffffffffffffffffffff16633f1a1187838360006040518463ffffffff1660e01b8152600401610bef93929190612abf565b6040805180830381865afa158015610c0b573d6000803e3d6000fd5b505050506040513d601f19601f82011682018060405250810190610c2f9190612b0b565b80925081935050508160001b925050509392505050565b600360009054906101000a900463ffffffff1681565b60608282905067ffffffffffffffff811115610c7b57610c7a612b7a565b5b604051908082528060200260200182016040528015610ca95781602001602082028036833780820191505090505b50905060005b83839050811015610d1657610cdc848483818110610cd057610ccf612ba9565b5b90506020020135610ea2565b15610d09576001828281518110610cf657610cf5612ba9565b5b6020026020010190151590811515815250505b8080600101915050610caf565b5092915050565b600260045403610d62576040517f08c379a0000000000000000000000000000000000000000000000000000000008152600401610d59906124f5565b60405180910390fd5b60026004819055506007600082815260200190815260200160002060009054906101000a900460ff1615610dcb576040517f08c379a0000000000000000000000000000000000000000000000000000000008152600401610dc290612c4a565b60405180910390fd5b6000610dd68261182a565b905060016007600084815260200190815260200160002060006101000a81548160ff021916908315150217905550610e0c611a44565b817fa945e51eec50ab98c161376f0db4cf2aeba3ec92755fe2fcd388bdbbb80ff1968242604051610e3e929190612c6a565b60405180910390a250600160048190555050565b600060026000600360009054906101000a900463ffffffff1663ffffffff16815260200190815260200160002054905090565b60026020528060005260406000206000915090505481565b601e81565b60006006600083815260200190815260200160002060009054906101000a900460ff169050919050565b6000808203610f00577f2fe54c60d3acabf3343a35b6eba15db4821b340f76e741e2249685ed4899af6c60001b9050611566565b60018203610f33577f256a6135777eee2fd26f54b8b7037a25439d5235caee224154186d2b8a52e31d60001b9050611566565b60028203610f66577f1151949895e82ab19924de92c40a3d6f7bcb60d92b00504b8199613683f0c20060001b9050611566565b60038203610f99577f20121ee811489ff8d61f09fb89e313f14959a0f28bb428a20dba6b0b068b3bdb60001b9050611566565b60048203610fcc577f0a89ca6ffa14cc462cfedb842c30ed221a50a3d6bf022a6a57dc82ab24c157c960001b9050611566565b60058203610fff577f24ca05c2b5cd42e890d6be94c68d0689f4f21c9cec9c0f13fe41d566dfb5495960001b9050611566565b60068203611032577f1ccb97c932565a92c60156bdba2d08f3bf1377464e025cee765679e604a7315c60001b9050611566565b60078203611065577f19156fbd7d1a8bf5cba8909367de1b624534ebab4f0f79e003bccdd1b182bdb460001b9050611566565b60088203611098577f261af8c1f0912e465744641409f622d466c3920ac6e5ff37e36604cb11dfff8060001b9050611566565b600982036110ca577e58459724ff6ca5a1652fcbc3e82b93895cf08e975b19beab3f54c217d1c00760001b9050611566565b600a82036110fd577f1f04ef20dee48d39984d8eabe768a70eafa6310ad20849d4573c3c40c2ad1e3060001b9050611566565b600b8203611130577f1bea3dec5dab51567ce7e200a30f7ba6d4276aeaa53e2686f962a46c66d511e560001b9050611566565b600c8203611163577f0ee0f941e2da4b9e31c3ca97a40d8fa9ce68d97c084177071b3cb46cd3372f0f60001b9050611566565b600d8203611196577f1ca9503e8935884501bbaf20be14eb4c46b89772c97b96e3b2ebf3a36a948bbd60001b9050611566565b600e82036111c9577f133a80e30697cd55d8f7d4b0965b7be24057ba5dc3da898ee2187232446cb10860001b9050611566565b600f82036111fc577f13e6d8fc88839ed76e182c2a779af5b2c0da9dd18c90427a644f7e148a6253b660001b9050611566565b6010820361122f577f1eb16b057a477f4bc8f572ea6bee39561098f78f15bfb3699dcbb7bd8db6185460001b9050611566565b60118203611262577f0da2cb16a1ceaabf1c16b838f7a9e3f2a3a3088d9e0a6debaa748114620696ea60001b9050611566565b60128203611295577f24a3b3d822420b14b5d8cb6c28a574f01e98ea9e940551d2ebd75cee12649f9d60001b9050611566565b601382036112c8577f198622acbd783d1b0d9064105b1fc8e4d8889de95c4c519b3f635809fe6afc0560001b9050611566565b601482036112fb577f29d7ed391256ccc3ea596c86e933b89ff339d25ea8ddced975ae2fe30b5296d460001b9050611566565b6015820361132e577f19be59f2f0413ce78c0c3703a3a5451b1d7f39629fa33abd11548a76065b296760001b9050611566565b60168203611361577f1ff3f61797e538b70e619310d33f2a063e7eb59104e112e95738da1254dc345360001b9050611566565b60178203611394577f10c16ae9959cf8358980d9dd9616e48228737310a10e2b6b731c1a548f036c4860001b9050611566565b601882036113c7577f0ba433a63174a90ac20992e75e3095496812b652685b5e1a2eae0b1bf4e8fcd160001b9050611566565b601982036113fa577f019ddb9df2bc98d987d0dfeca9d2b643deafab8f7036562e627c3667266a044c60001b9050611566565b601a820361142d577f2d3c88b23175c5a5565db928414c66d1912b11acf974b2e644caaac04739ce9960001b9050611566565b601b8203611460577f2eab55f6ae4e66e32c5189eed5c470840863445760f5ed7e7b69b2a62600f35460001b9050611566565b601c8203611492577e2df37a2642621802383cf952bf4dd1f32e05433beeb1fd41031fb7eace979d60001b9050611566565b601d82036114c5577f104aeb41435db66c3e62feccc1d6f5d98d0a0ed75d1374db457cf462e3a1f42760001b9050611566565b601e82036114f8577f1f3c6fd858e9a7d4b0d1f38e256a09d81d5a5e3c963987e2d4b814cfab7c6ebb60001b9050611566565b601f820361152b577f2c7a07d20dff79d01fecedc1134284a8d08436606c93693b67e333f671bf69cc60001b9050611566565b6040517f08c379a000000000000000000000000000000000000000000000000000000000815260040161155d90612cdf565b60405180910390fd5b919050565b7f2fe54c60d3acabf3343a35b6eba15db4821b340f76e741e2249685ed4899af6c81565b7f000000000000000000000000000000000000000000000000000000000000000081565b60016020528060005260406000206000915090505481565b600860009054906101000a900473ffffffffffffffffffffffffffffffffffffffff1681565b600360049054906101000a900463ffffffff1681565b803414611649576040517f08c379a000000000000000000000000000000000000000000000000000000000815260040161164090612d71565b60405180910390fd5b6116a3848360055461165b9190612d91565b600860009054906101000a900473ffffffffffffffffffffffffffffffffffffffff1673ffffffffffffffffffffffffffffffffffffffff16611ada9092919063ffffffff16565b60008211156116fa576116f98383600860009054906101000a900473ffffffffffffffffffffffffffffffffffffffff1673ffffffffffffffffffffffffffffffffffffffff16611ada9092919063ffffffff16565b5b60008111156118245760008473ffffffffffffffffffffffffffffffffffffffff168260405161172990612df6565b60006040518083038185875af1925050503d8060008114611766576040519150601f19603f3d011682016040523d82523d6000602084013e61176b565b606091505b50509050806118225760008473ffffffffffffffffffffffffffffffffffffffff168360405161179a90612df6565b60006040518083038185875af1925050503d80600081146117d7576040519150601f19603f3d011682016040523d82523d6000602084013e6117dc565b606091505b5050905080611820576040517f08c379a000000000000000000000000000000000000000000000000000000000815260040161181790612e57565b60405180910390fd5b505b505b50505050565b600080600360049054906101000a900463ffffffff16905060008054906101000a900463ffffffff16600261185f9190612faa565b63ffffffff168163ffffffff16036118ac576040517f08c379a00000000000000000000000000000000000000000000000000000000081526004016118a39061304b565b60405180910390fd5b6000819050600084905060008060005b60008054906101000a900463ffffffff1663ffffffff168163ffffffff16101561199a5760006002866118ef919061306b565b63ffffffff16036119315783925061190c8163ffffffff16610ecc565b915083600160008363ffffffff16815260200190815260200160002081905550611951565b600160008263ffffffff1681526020019081526020016000205492508391505b61197c7f00000000000000000000000000000000000000000000000000000000000000008484610a1e565b935060028561198b919061309c565b945080806001019150506118bc565b506000601e6001600360009054906101000a900463ffffffff166119be91906130cd565b6119c8919061306b565b905080600360006101000a81548163ffffffff021916908363ffffffff16021790555083600260008363ffffffff16815260200190815260200160002081905550600186611a1691906130cd565b600360046101000a81548163ffffffff021916908363ffffffff160217905550859650505050505050919050565b60003414611a87576040517f08c379a0000000000000000000000000000000000000000000000000000000008152600401611a7e90613177565b60405180910390fd5b611ad83330600554600860009054906101000a900473ffffffffffffffffffffffffffffffffffffffff1673ffffffffffffffffffffffffffffffffffffffff16611b60909392919063ffffffff16565b565b611b5b8363a9059cbb60e01b8484604051602401611af9929190613197565b604051602081830303815290604052907bffffffffffffffffffffffffffffffffffffffffffffffffffffffff19166020820180517bffffffffffffffffffffffffffffffffffffffffffffffffffffffff8381831617835250505050611be9565b505050565b611be3846323b872dd60e01b858585604051602401611b81939291906131c0565b604051602081830303815290604052907bffffffffffffffffffffffffffffffffffffffffffffffffffffffff19166020820180517bffffffffffffffffffffffffffffffffffffffffffffffffffffffff8381831617835250505050611be9565b50505050565b6000611c4b826040518060400160405280602081526020017f5361666545524332303a206c6f772d6c6576656c2063616c6c206661696c65648152508573ffffffffffffffffffffffffffffffffffffffff16611cb19092919063ffffffff16565b9050600081511480611c6d575080806020019051810190611c6c919061284f565b5b611cac576040517f08c379a0000000000000000000000000000000000000000000000000000000008152600401611ca390613269565b60405180910390fd5b505050565b6060611cc08484600085611cc9565b90509392505050565b606082471015611d0e576040517f08c379a0000000000000000000000000000000000000000000000000000000008152600401611d05906132fb565b60405180910390fd5b6000808673ffffffffffffffffffffffffffffffffffffffff168587604051611d379190613381565b60006040518083038185875af1925050503d8060008114611d74576040519150601f19603f3d011682016040523d82523d6000602084013e611d79565b606091505b5091509150611d8a87838387611d96565b92505050949350505050565b60608315611df8576000835103611df057611db085611e0b565b611def576040517f08c379a0000000000000000000000000000000000000000000000000000000008152600401611de6906133e4565b60405180910390fd5b5b829050611e03565b611e028383611e2e565b5b949350505050565b6000808273ffffffffffffffffffffffffffffffffffffffff163b119050919050565b600082511115611e415781518083602001fd5b806040517f08c379a0000000000000000000000000000000000000000000000000000000008152600401611e759190613459565b60405180910390fd5b600080fd5b600080fd5b6000819050919050565b611e9b81611e88565b8114611ea657600080fd5b50565b600081359050611eb881611e92565b92915050565b600060208284031215611ed457611ed3611e7e565b5b6000611ee284828501611ea9565b91505092915050565b60008115159050919050565b611f0081611eeb565b82525050565b6000602082019050611f1b6000830184611ef7565b92915050565b600080fd5b600081905082602060020282011115611f4257611f41611f21565b5b92915050565b600081905082604060020282011115611f6457611f63611f21565b5b92915050565b600073ffffffffffffffffffffffffffffffffffffffff82169050919050565b6000611f9582611f6a565b9050919050565b611fa581611f8a565b8114611fb057600080fd5b50565b600081359050611fc281611f9c565b92915050565b6000819050919050565b611fdb81611fc8565b8114611fe657600080fd5b50565b600081359050611ff881611fd2565b92915050565b60008060008060008060008060006101c08a8c03121561202157612020611e7e565b5b600061202f8c828d01611f26565b99505060406120408c828d01611f48565b98505060c06120518c828d01611f26565b9750506101006120638c828d01611ea9565b9650506101206120758c828d01611ea9565b9550506101406120878c828d01611fb3565b9450506101606120998c828d01611fb3565b9350506101806120ab8c828d01611fe9565b9250506101a06120bd8c828d01611fe9565b9150509295985092959850929598565b6000819050919050565b60006120f26120ed6120e884611f6a565b6120cd565b611f6a565b9050919050565b6000612104826120d7565b9050919050565b6000612116826120f9565b9050919050565b6121268161210b565b82525050565b6000602082019050612141600083018461211d565b92915050565b600063ffffffff82169050919050565b61216081612147565b82525050565b600060208201905061217b6000830184612157565b92915050565b61218a81611fc8565b82525050565b60006020820190506121a56000830184612181565b92915050565b60006121b682611f8a565b9050919050565b6121c6816121ab565b81146121d157600080fd5b50565b6000813590506121e3816121bd565b92915050565b60008060006060848603121561220257612201611e7e565b5b6000612210868287016121d4565b935050602061222186828701611ea9565b925050604061223286828701611ea9565b9150509250925092565b61224581611e88565b82525050565b6000602082019050612260600083018461223c565b92915050565b600080fd5b600080fd5b60008083601f84011261228657612285612266565b5b8235905067ffffffffffffffff8111156122a3576122a261226b565b5b6020830191508360208202830111156122bf576122be611f21565b5b9250929050565b600080602083850312156122dd576122dc611e7e565b5b600083013567ffffffffffffffff8111156122fb576122fa611e83565b5b61230785828601612270565b92509250509250929050565b600081519050919050565b600082825260208201905092915050565b6000819050602082019050919050565b61234881611eeb565b82525050565b600061235a838361233f565b60208301905092915050565b6000602082019050919050565b600061237e82612313565b612388818561231e565b93506123938361232f565b8060005b838110156123c45781516123ab888261234e565b97506123b683612366565b925050600181019050612397565b5085935050505092915050565b600060208201905081810360008301526123eb8184612373565b905092915050565b60006020828403121561240957612408611e7e565b5b600061241784828501611fe9565b91505092915050565b600061242b826120f9565b9050919050565b61243b81612420565b82525050565b60006020820190506124566000830184612432565b92915050565b6000612467826120f9565b9050919050565b6124778161245c565b82525050565b6000602082019050612492600083018461246e565b92915050565b600082825260208201905092915050565b7f5265656e7472616e637947756172643a207265656e7472616e742063616c6c00600082015250565b60006124df601f83612498565b91506124ea826124a9565b602082019050919050565b6000602082019050818103600083015261250e816124d2565b9050919050565b7f4665652065786365656473207472616e736665722076616c7565000000000000600082015250565b600061254b601a83612498565b915061255682612515565b602082019050919050565b6000602082019050818103600083015261257a8161253e565b9050919050565b7f546865206e6f746520686173206265656e20616c7265616479207370656e7400600082015250565b60006125b7601f83612498565b91506125c282612581565b602082019050919050565b600060208201905081810360008301526125e6816125aa565b9050919050565b7f43616e6e6f742066696e6420796f7572206d65726b6c6520726f6f7400000000600082015250565b6000612623601c83612498565b915061262e826125ed565b602082019050919050565b6000602082019050818103600083015261265281612616565b9050919050565b82818337505050565b61266e60408383612659565b5050565b600060029050919050565b600081905092915050565b6000819050919050565b61269e60408383612659565b5050565b60006126ae8383612692565b60408301905092915050565b600082905092915050565b6000604082019050919050565b6126db81612672565b6126e5818461267d565b92506126f082612688565b8060005b838110156127295761270682846126ba565b61271087826126a2565b965061271b836126c5565b9250506001810190506126f4565b505050505050565b600060069050919050565b600081905092915050565b6000819050919050565b61275a81611fc8565b82525050565b600061276c8383612751565b60208301905092915050565b6000602082019050919050565b61278e81612731565b612798818461273c565b92506127a382612747565b8060005b838110156127d45781516127bb8782612760565b96506127c683612778565b9250506001810190506127a7565b505050505050565b60006101c0820190506127f26000830187612662565b6127ff60408301866126d2565b61280c60c0830185612662565b61281a610100830184612785565b95945050505050565b61282c81611eeb565b811461283757600080fd5b50565b60008151905061284981612823565b92915050565b60006020828403121561286557612864611e7e565b5b60006128738482850161283a565b91505092915050565b7f496e76616c69642077697468647261772070726f6f6600000000000000000000600082015250565b60006128b2601683612498565b91506128bd8261287c565b602082019050919050565b600060208201905081810360008301526128e1816128a5565b9050919050565b6128f181611f8a565b82525050565b600060608201905061290c60008301866128e8565b612919602083018561223c565b6129266040830184612181565b949350505050565b7f4e487b7100000000000000000000000000000000000000000000000000000000600052601160045260246000fd5b600061296882612147565b91506000820361297b5761297a61292e565b5b600182039050919050565b7f5f6c6566742073686f756c6420626520696e7369646520746865206669656c64600082015250565b60006129bc602083612498565b91506129c782612986565b602082019050919050565b600060208201905081810360008301526129eb816129af565b9050919050565b7f5f72696768742073686f756c6420626520696e7369646520746865206669656c60008201527f6400000000000000000000000000000000000000000000000000000000000000602082015250565b6000612a4e602183612498565b9150612a59826129f2565b604082019050919050565b60006020820190508181036000830152612a7d81612a41565b9050919050565b6000819050919050565b6000612aa9612aa4612a9f84612a84565b6120cd565b611fc8565b9050919050565b612ab981612a8e565b82525050565b6000606082019050612ad46000830186612181565b612ae16020830185612181565b612aee6040830184612ab0565b949350505050565b600081519050612b0581611fd2565b92915050565b60008060408385031215612b2257612b21611e7e565b5b6000612b3085828601612af6565b9250506020612b4185828601612af6565b9150509250929050565b7f4e487b7100000000000000000000000000000000000000000000000000000000600052601260045260246000fd5b7f4e487b7100000000000000000000000000000000000000000000000000000000600052604160045260246000fd5b7f4e487b7100000000000000000000000000000000000000000000000000000000600052603260045260246000fd5b7f54686520636f6d6d69746d656e7420686173206265656e207375626d6974746560008201527f6400000000000000000000000000000000000000000000000000000000000000602082015250565b6000612c34602183612498565b9150612c3f82612bd8565b604082019050919050565b60006020820190508181036000830152612c6381612c27565b9050919050565b6000604082019050612c7f6000830185612157565b612c8c6020830184612181565b9392505050565b7f496e646578206f7574206f6620626f756e647300000000000000000000000000600082015250565b6000612cc9601383612498565b9150612cd482612c93565b602082019050919050565b60006020820190508181036000830152612cf881612cbc565b9050919050565b7f496e636f727265637420726566756e6420616d6f756e7420726563656976656460008201527f2062792074686520636f6e747261637400000000000000000000000000000000602082015250565b6000612d5b603083612498565b9150612d6682612cff565b604082019050919050565b60006020820190508181036000830152612d8a81612d4e565b9050919050565b6000612d9c82611fc8565b9150612da783611fc8565b9250828203905081811115612dbf57612dbe61292e565b5b92915050565b600081905092915050565b50565b6000612de0600083612dc5565b9150612deb82612dd0565b600082019050919050565b6000612e0182612dd3565b9150819050919050565b7f526566756e6420746f2072656c61796572206661696c65640000000000000000600082015250565b6000612e41601883612498565b9150612e4c82612e0b565b602082019050919050565b60006020820190508181036000830152612e7081612e34565b9050919050565b60008160011c9050919050565b6000808291508390505b6001851115612ece57808604811115612eaa57612ea961292e565b5b6001851615612eb95780820291505b8081029050612ec785612e77565b9450612e8e565b94509492505050565b600082612ee75760019050612fa3565b81612ef55760009050612fa3565b8160018114612f0b5760028114612f1557612f44565b6001915050612fa3565b60ff841115612f2757612f2661292e565b5b8360020a915084821115612f3e57612f3d61292e565b5b50612fa3565b5060208310610133831016604e8410600b8410161715612f795782820a905083811115612f7457612f7361292e565b5b612fa3565b612f868484846001612e84565b92509050818404811115612f9d57612f9c61292e565b5b81810290505b9392505050565b6000612fb582612147565b9150612fc083612147565b9250612fd163ffffffff8484612ed7565b905092915050565b7f4d65726b6c6520747265652069732066756c6c2e204e6f206d6f7265206c656160008201527f7665732063616e20626520616464656400000000000000000000000000000000602082015250565b6000613035603083612498565b915061304082612fd9565b604082019050919050565b6000602082019050818103600083015261306481613028565b9050919050565b600061307682612147565b915061308183612147565b92508261309157613090612b4b565b5b828206905092915050565b60006130a782612147565b91506130b283612147565b9250826130c2576130c1612b4b565b5b828204905092915050565b60006130d882612147565b91506130e383612147565b9250828201905063ffffffff8111156130ff576130fe61292e565b5b92915050565b7f4554482076616c756520697320737570706f73656420746f206265203020666f60008201527f7220455243323020696e7374616e636500000000000000000000000000000000602082015250565b6000613161603083612498565b915061316c82613105565b604082019050919050565b6000602082019050818103600083015261319081613154565b9050919050565b60006040820190506131ac60008301856128e8565b6131b96020830184612181565b9392505050565b60006060820190506131d560008301866128e8565b6131e260208301856128e8565b6131ef6040830184612181565b949350505050565b7f5361666545524332303a204552433230206f7065726174696f6e20646964206e60008201527f6f74207375636365656400000000000000000000000000000000000000000000602082015250565b6000613253602a83612498565b915061325e826131f7565b604082019050919050565b6000602082019050818103600083015261328281613246565b9050919050565b7f416464726573733a20696e73756666696369656e742062616c616e636520666f60008201527f722063616c6c0000000000000000000000000000000000000000000000000000602082015250565b60006132e5602683612498565b91506132f082613289565b604082019050919050565b60006020820190508181036000830152613314816132d8565b9050919050565b600081519050919050565b60005b83811015613344578082015181840152602081019050613329565b60008484015250505050565b600061335b8261331b565b6133658185612dc5565b9350613375818560208601613326565b80840191505092915050565b600061338d8284613350565b915081905092915050565b7f416464726573733a2063616c6c20746f206e6f6e2d636f6e7472616374000000600082015250565b60006133ce601d83612498565b91506133d982613398565b602082019050919050565b600060208201905081810360008301526133fd816133c1565b9050919050565b600081519050919050565b6000601f19601f8301169050919050565b600061342b82613404565b6134358185612498565b9350613445818560208601613326565b61344e8161340f565b840191505092915050565b600060208201905081810360008301526134738184613420565b90509291505056fea26469706673582212201f2b2420c0c68837f641672bfb2064685438f671473fd6af2a699aa5eb36164e64736f6c634300081c0033",
  "linkReferences": {},
  "deployedLinkReferences": {}
}