{
  "_format": "hh-sol-artifact-1",
  "contractName": "ETHTornado",
  "sourceName": "contracts/ETHTornado.sol",
  "abi": [
    {
      "inputs": [
        {
          "internalType": "contract IVerifier",
          "name": "_verifier",
          "type": "address"
        },
        {
          "internalType": "contract IHasher",
          "name": "_hasher",
          "type": "address"
        },
        {
          "internalType": "uint256",
          "name": "_denomination",
          "type": "uint256"
        },
        {
          "internalType": "uint32",
          "name": "_merkleTreeHeight",
          "type": "uint32"
        }
      ],
      "stateMutability": "nonpayable",
      "type": "constructor"
    },
    {
      "anonymous": false,
      "inputs": [
        {
          "indexed": true,
          "internalType": "bytes32",
          "name": "commitment",
          "type": "bytes32"
        },
        {
          "indexed": false,
          "internalType": "uint32",
          "name": "leafIndex",
          "type": "uint32"
        },
        {
          "indexed": false,
          "internalType": "uint256",
          "name": "timestamp",
          "type": "uint256"
        }
      ],
      "name": "Deposit",
      "type": "event"
    },
    {
      "anonymous": false,
      "inputs": [
        {
          "indexed": false,
          "internalType": "address",
          "name": "to",
          "type": "address"
        },
        {
          "indexed": false,
          "internalType": "bytes32",
          "name": "nullifierHash",
          "type": "bytes32"
        },
        {
          "indexed": true,
          "internalType": "address",
          "name": "relayer",
          "type": "address"
        },
        {
          "indexed": false,
          "internalType": "uint256",
          "name": "fee",
          "type": "uint256"
        }
      ],
      "name": "Withdrawal",
      "type": "event"
    },
    {
      "inputs": [],
      "name": "FIELD_SIZE",
      "outputs": [
        {
          "internalType": "uint256",
          "name": "",
          "type": "uint256"
        }
      ],
      "stateMutability": "view",
      "type": "function"
    },
    {
      "inputs": [],
      "name": "ROOT_HISTORY_SIZE",
      "outputs": [
        {
          "internalType": "uint32",
          "name": "",
          "type": "uint32"
        }
      ],
      "stateMutability": "view",
      "type": "function"
    },
    {
      "inputs": [],
      "name": "ZERO_VALUE",
      "outputs": [
        {
          "internalType": "uint256",
          "name": "",
          "type": "uint256"
        }
      ],
      "stateMutability": "view",
      "type": "function"
    },
    {
      "inputs": [
        {
          "internalType": "bytes32",
          "name": "",
          "type": "bytes32"
        }
      ],
      "name": "commitments",
      "outputs": [
        {
          "internalType": "bool",
          "name": "",
          "type": "bool"
        }
      ],
      "stateMutability": "view",
      "type": "function"
    },
    {
      "inputs": [],
      "name": "currentRootIndex",
      "outputs": [
        {
          "internalType": "uint32",
          "name": "",
          "type": "uint32"
        }
      ],
      "stateMutability": "view",
      "type": "function"
    },
    {
      "inputs": [],
      "name": "denomination",
      "outputs": [
        {
          "internalType": "uint256",
          "name": "",
          "type": "uint256"
        }
      ],
      "stateMutability": "view",
      "type": "function"
    },
    {
      "inputs": [
        {
          "internalType": "bytes32",
          "name": "_commitment",
          "type": "bytes32"
        }
      ],
      "name": "deposit",
      "outputs": [],
      "stateMutability": "payable",
      "type": "function"
    },
    {
      "inputs": [
        {
          "internalType": "uint256",
          "name": "",
          "type": "uint256"
        }
      ],
      "name": "filledSubtrees",
      "outputs": [
        {
          "internalType": "bytes32",
          "name": "",
          "type": "bytes32"
        }
      ],
      "stateMutability": "view",
      "type": "function"
    },
    {
      "inputs": [],
      "name": "getLastRoot",
      "outputs": [
        {
          "internalType": "bytes32",
          "name": "",
          "type": "bytes32"
        }
      ],
      "stateMutability": "view",
      "type": "function"
    },
    {
      "inputs": [
        {
          "internalType": "contract IHasher",
          "name": "_hasher",
          "type": "address"
        },
        {
          "internalType": "bytes32",
          "name": "_left",
          "type": "bytes32"
        },
        {
          "internalType": "bytes32",
          "name": "_right",
          "type": "bytes32"
        }
      ],
      "name": "hashLeftRight",
      "outputs": [
        {
          "internalType": "bytes32",
          "name": "",
          "type": "bytes32"
        }
      ],
      "stateMutability": "pure",
      "type": "function"
    },
    {
      "inputs": [],
      "name": "hasher",
      "outputs": [
        {
          "internalType": "contract IHasher",
          "name": "",
          "type": "address"
        }
      ],
      "stateMutability": "view",
      "type": "function"
    },
    {
      "inputs": [
        {
          "internalType": "bytes32",
          "name": "_leaf",
          "type": "bytes32"
        }
      ],
      "name": "insert",
      "outputs": [
        {
          "internalType": "uint32",
          "name": "",
          "type": "uint32"
        }
      ],
      "stateMutability": "nonpayable",
      "type": "function"
    },
    {
      "inputs": [
        {
          "internalType": "bytes32",
          "name": "_root",
          "type": "bytes32"
        }
      ],
      "name": "isKnownRoot",
      "outputs": [
        {
          "internalType": "bool",
          "name": "",
          "type": "bool"
        }
      ],
      "stateMutability": "view",
      "type": "function"
    },
    {
      "inputs": [
        {
          "internalType": "bytes32",
          "name": "_nullifierHash",
          "type": "bytes32"
        }
      ],
      "name": "isSpent",
      "outputs": [
        {
          "internalType": "bool",
          "name": "",
          "type": "bool"
        }
      ],
      "stateMutability": "view",
      "type": "function"
    },
    {
      "inputs": [
        {
          "internalType": "bytes32[]",
          "name": "_nullifierHashes",
          "type": "bytes32[]"
        }
      ],
      "name": "isSpentArray",
      "outputs": [
        {
          "internalType": "bool[]",
          "name": "spent",
          "type": "bool[]"
        }
      ],
      "stateMutability": "view",
      "type": "function"
    },
    {
      "inputs": [],
      "name": "levels",
      "outputs": [
        {
          "internalType": "uint32",
          "name": "",
          "type": "uint32"
        }
      ],
      "stateMutability": "view",
      "type": "function"
    },
    {
      "inputs": [],
      "name": "nextIndex",
      "outputs": [
        {
          "internalType": "uint32",
          "name": "",
          "type": "uint32"
        }
      ],
      "stateMutability": "view",
      "type": "function"
    },
    {
      "inputs": [
        {
          "internalType": "bytes32",
          "name": "",
          "type": "bytes32"
        }
      ],
      "name": "nullifierHashes",
      "outputs": [
        {
          "internalType": "bool",
          "name": "",
          "type": "bool"
        }
      ],
      "stateMutability": "view",
      "type": "function"
    },
    {
      "inputs": [
        {
          "internalType": "uint256",
          "name": "",
          "type": "uint256"
        }
      ],
      "name": "roots",
      "outputs": [
        {
          "internalType": "bytes32",
          "name": "",
          "type": "bytes32"
        }
      ],
      "stateMutability": "view",
      "type": "function"
    },
    {
      "inputs": [],
      "name": "verifier",
      "outputs": [
        {
          "internalType": "contract IVerifier",
          "name": "",
          "type": "address"
        }
      ],
      "stateMutability": "view",
      "type": "function"
    },
    {
      "inputs": [
        {
          "internalType": "uint256[2]",
          "name": "_pA",
          "type": "uint256[2]"
        },
        {
          "internalType": "uint256[2][2]",
          "name": "_pB",
          "type": "uint256[2][2]"
        },
        {
          "internalType": "uint256[2]",
          "name": "_pC",
          "type": "uint256[2]"
        },
        {
          "internalType": "bytes32",
          "name": "_root",
          "type": "bytes32"
        },
        {
          "internalType": "bytes32",
          "name": "_nullifierHash",
          "type": "bytes32"
        },
        {
          "internalType": "address",
          "name": "_recipient",
          "type": "address"
        },
        {
          "internalType": "address",
          "name": "_relayer",
          "type": "address"
        },
        {
          "internalType": "uint256",
          "name": "_fee",
          "type": "uint256"
        },
        {
          "internalType": "uint256",
          "name": "_refund",
          "type": "uint256"
        }
      ],
      "name": "withdraw",
      "outputs": [],
      "stateMutability": "payable",
      "type": "function"
    },
    {
      "inputs": [
        {
          "internalType": "uint256",
          "name": "i",
          "type": "uint256"
        }
      ],
      "name": "zeros",
      "outputs": [
        {
          "internalType": "bytes32",
          "name": "",
          "type": "bytes32"
        }
      ],
      "stateMutability": "pure",
      "type": "function"
    }
  ],
  "bytecode": "0x60c06040526000600360006101000a81548163ffffffff021916908363ffffffff1602179055506000600360046101000a81548163ffffffff021916908363ffffffff16021790555034801561005457600080fd5b50604051613bbc380380613bbc83398181016040528101906100769190610a4a565b83838383808360008263ffffffff16116100c5576040517f08c379a00000000000000000000000000000000000000000000000000000000081526004016100bc90610b34565b60405180910390fd5b60208263ffffffff161061010e576040517f08c379a000000000000000000000000000000000000000000000000000000000815260040161010590610ba0565b60405180910390fd5b816000806101000a81548163ffffffff021916908363ffffffff1602179055508073ffffffffffffffffffffffffffffffffffffffff1660808173ffffffffffffffffffffffffffffffffffffffff168152505060005b8263ffffffff168163ffffffff1610156101b85761018e8163ffffffff1661028660201b60201c565b600160008363ffffffff168152602001908152602001600020819055508080600101915050610165565b506101da6001836101c99190610bef565b63ffffffff1661028660201b60201c565b6002600080815260200190815260200160002081905550505060016004819055506000821161023e576040517f08c379a000000000000000000000000000000000000000000000000000000000815260040161023590610c99565b60405180910390fd5b8373ffffffffffffffffffffffffffffffffffffffff1660a08173ffffffffffffffffffffffffffffffffffffffff1681525050816005819055505050505050505050610d25565b60008082036102ba577f2fe54c60d3acabf3343a35b6eba15db4821b340f76e741e2249685ed4899af6c60001b9050610920565b600182036102ed577f256a6135777eee2fd26f54b8b7037a25439d5235caee224154186d2b8a52e31d60001b9050610920565b60028203610320577f1151949895e82ab19924de92c40a3d6f7bcb60d92b00504b8199613683f0c20060001b9050610920565b60038203610353577f20121ee811489ff8d61f09fb89e313f14959a0f28bb428a20dba6b0b068b3bdb60001b9050610920565b60048203610386577f0a89ca6ffa14cc462cfedb842c30ed221a50a3d6bf022a6a57dc82ab24c157c960001b9050610920565b600582036103b9577f24ca05c2b5cd42e890d6be94c68d0689f4f21c9cec9c0f13fe41d566dfb5495960001b9050610920565b600682036103ec577f1ccb97c932565a92c60156bdba2d08f3bf1377464e025cee765679e604a7315c60001b9050610920565b6007820361041f577f19156fbd7d1a8bf5cba8909367de1b624534ebab4f0f79e003bccdd1b182bdb460001b9050610920565b60088203610452577f261af8c1f0912e465744641409f622d466c3920ac6e5ff37e36604cb11dfff8060001b9050610920565b60098203610484577e58459724ff6ca5a1652fcbc3e82b93895cf08e975b19beab3f54c217d1c00760001b9050610920565b600a82036104b7577f1f04ef20dee48d39984d8eabe768a70eafa6310ad20849d4573c3c40c2ad1e3060001b9050610920565b600b82036104ea577f1bea3dec5dab51567ce7e200a30f7ba6d4276aeaa53e2686f962a46c66d511e560001b9050610920565b600c820361051d577f0ee0f941e2da4b9e31c3ca97a40d8fa9ce68d97c084177071b3cb46cd3372f0f60001b9050610920565b600d8203610550577f1ca9503e8935884501bbaf20be14eb4c46b89772c97b96e3b2ebf3a36a948bbd60001b9050610920565b600e8203610583577f133a80e30697cd55d8f7d4b0965b7be24057ba5dc3da898ee2187232446cb10860001b9050610920565b600f82036105b6577f13e6d8fc88839ed76e182c2a779af5b2c0da9dd18c90427a644f7e148a6253b660001b9050610920565b601082036105e9577f1eb16b057a477f4bc8f572ea6bee39561098f78f15bfb3699dcbb7bd8db6185460001b9050610920565b6011820361061c577f0da2cb16a1ceaabf1c16b838f7a9e3f2a3a3088d9e0a6debaa748114620696ea60001b9050610920565b6012820361064f577f24a3b3d822420b14b5d8cb6c28a574f01e98ea9e940551d2ebd75cee12649f9d60001b9050610920565b60138203610682577f198622acbd783d1b0d9064105b1fc8e4d8889de95c4c519b3f635809fe6afc0560001b9050610920565b601482036106b5577f29d7ed391256ccc3ea596c86e933b89ff339d25ea8ddced975ae2fe30b5296d460001b9050610920565b601582036106e8577f19be59f2f0413ce78c0c3703a3a5451b1d7f39629fa33abd11548a76065b296760001b9050610920565b6016820361071b577f1ff3f61797e538b70e619310d33f2a063e7eb59104e112e95738da1254dc345360001b9050610920565b6017820361074e577f10c16ae9959cf8358980d9dd9616e48228737310a10e2b6b731c1a548f036c4860001b9050610920565b60188203610781577f0ba433a63174a90ac20992e75e3095496812b652685b5e1a2eae0b1bf4e8fcd160001b9050610920565b601982036107b4577f019ddb9df2bc98d987d0dfeca9d2b643deafab8f7036562e627c3667266a044c60001b9050610920565b601a82036107e7577f2d3c88b23175c5a5565db928414c66d1912b11acf974b2e644caaac04739ce9960001b9050610920565b601b820361081a577f2eab55f6ae4e66e32c5189eed5c470840863445760f5ed7e7b69b2a62600f35460001b9050610920565b601c820361084c577e2df37a2642621802383cf952bf4dd1f32e05433beeb1fd41031fb7eace979d60001b9050610920565b601d820361087f577f104aeb41435db66c3e62feccc1d6f5d98d0a0ed75d1374db457cf462e3a1f42760001b9050610920565b601e82036108b2577f1f3c6fd858e9a7d4b0d1f38e256a09d81d5a5e3c963987e2d4b814cfab7c6ebb60001b9050610920565b601f82036108e5577f2c7a07d20dff79d01fecedc1134284a8d08436606c93693b67e333f671bf69cc60001b9050610920565b6040517f08c379a000000000000000000000000000000000000000000000000000000000815260040161091790610d05565b60405180910390fd5b919050565b600080fd5b600073ffffffffffffffffffffffffffffffffffffffff82169050919050565b60006109558261092a565b9050919050565b60006109678261094a565b9050919050565b6109778161095c565b811461098257600080fd5b50565b6000815190506109948161096e565b92915050565b60006109a58261094a565b9050919050565b6109b58161099a565b81146109c057600080fd5b50565b6000815190506109d2816109ac565b92915050565b6000819050919050565b6109eb816109d8565b81146109f657600080fd5b50565b600081519050610a08816109e2565b92915050565b600063ffffffff82169050919050565b610a2781610a0e565b8114610a3257600080fd5b50565b600081519050610a4481610a1e565b92915050565b60008060008060808587031215610a6457610a63610925565b5b6000610a7287828801610985565b9450506020610a83878288016109c3565b9350506040610a94878288016109f9565b9250506060610aa587828801610a35565b91505092959194509250565b600082825260208201905092915050565b7f5f6c6576656c732073686f756c642062652067726561746572207468616e207a60008201527f65726f0000000000000000000000000000000000000000000000000000000000602082015250565b6000610b1e602383610ab1565b9150610b2982610ac2565b604082019050919050565b60006020820190508181036000830152610b4d81610b11565b9050919050565b7f5f6c6576656c732073686f756c64206265206c657373207468616e2033320000600082015250565b6000610b8a601e83610ab1565b9150610b9582610b54565b602082019050919050565b60006020820190508181036000830152610bb981610b7d565b9050919050565b7f4e487b7100000000000000000000000000000000000000000000000000000000600052601160045260246000fd5b6000610bfa82610a0e565b9150610c0583610a0e565b9250828203905063ffffffff811115610c2157610c20610bc0565b5b92915050565b7f64656e6f6d696e6174696f6e2073686f756c642062652067726561746572207460008201527f68616e2030000000000000000000000000000000000000000000000000000000602082015250565b6000610c83602583610ab1565b9150610c8e82610c27565b604082019050919050565b60006020820190508181036000830152610cb281610c76565b9050919050565b7f496e646578206f7574206f6620626f756e647300000000000000000000000000600082015250565b6000610cef601383610ab1565b9150610cfa82610cb9565b602082019050919050565b60006020820190508181036000830152610d1e81610ce2565b9050919050565b60805160a051612e64610d58600039600081816106df01526108b901526000818161155b01526118d30152612e646000f3fe6080604052600436106101355760003560e01c80639fa12d0b116100ab578063e5285dcc1161006f578063e5285dcc1461044a578063e829558814610487578063ec732959146104c4578063ed33639f146104ef578063f178e47c1461051a578063fc7e9c6f1461055757610135565b80639fa12d0b1461035e578063b214faa51461039b578063ba70f757146103b7578063c2b40ae4146103e2578063cd87a3b41461041f57610135565b80634ecf518b116100fd5780634ecf518b146102265780636d9833e314610251578063839df9451461028e5780638bca6d16146102cb5780638ea3099e146102f657806390eeb02b1461033357610135565b806317cc915c1461013a5780632aa4eeec146101775780632b7ac3f3146101935780632d287e43146101be578063414a37ba146101fb575b600080fd5b34801561014657600080fd5b50610161600480360381019061015c9190611a47565b610582565b60405161016e9190611a8f565b60405180910390f35b610191600480360381019061018c9190611b87565b6105a2565b005b34801561019f57600080fd5b506101a86108b7565b6040516101b59190611cb5565b60405180910390f35b3480156101ca57600080fd5b506101e560048036038101906101e09190611a47565b6108db565b6040516101f29190611cef565b60405180910390f35b34801561020757600080fd5b506102106108ed565b60405161021d9190611d19565b60405180910390f35b34801561023257600080fd5b5061023b610911565b6040516102489190611cef565b60405180910390f35b34801561025d57600080fd5b5061027860048036038101906102739190611a47565b610925565b6040516102859190611a8f565b60405180910390f35b34801561029a57600080fd5b506102b560048036038101906102b09190611a47565b6109c2565b6040516102c29190611a8f565b60405180910390f35b3480156102d757600080fd5b506102e06109e2565b6040516102ed9190611d19565b60405180910390f35b34801561030257600080fd5b5061031d60048036038101906103189190611d72565b6109e8565b60405161032a9190611dd4565b60405180910390f35b34801561033f57600080fd5b50610348610c10565b6040516103559190611cef565b60405180910390f35b34801561036a57600080fd5b5061038560048036038101906103809190611e4f565b610c26565b6040516103929190611f5a565b60405180910390f35b6103b560048036038101906103b09190611a47565b610ce7565b005b3480156103c357600080fd5b506103cc610e1c565b6040516103d99190611dd4565b60405180910390f35b3480156103ee57600080fd5b5061040960048036038101906104049190611f7c565b610e4f565b6040516104169190611dd4565b60405180910390f35b34801561042b57600080fd5b50610434610e67565b6040516104419190611cef565b60405180910390f35b34801561045657600080fd5b50610471600480360381019061046c9190611a47565b610e6c565b60405161047e9190611a8f565b60405180910390f35b34801561049357600080fd5b506104ae60048036038101906104a99190611f7c565b610e96565b6040516104bb9190611dd4565b60405180910390f35b3480156104d057600080fd5b506104d9611535565b6040516104e69190611d19565b60405180910390f35b3480156104fb57600080fd5b50610504611559565b6040516105119190611fca565b60405180910390f35b34801561052657600080fd5b50610541600480360381019061053c9190611f7c565b61157d565b60405161054e9190611dd4565b60405180910390f35b34801561056357600080fd5b5061056c611595565b6040516105799190611cef565b60405180910390f35b60066020528060005260406000206000915054906101000a900460ff1681565b6002600454036105e7576040517f08c379a00000000000000000000000000000000000000000000000000000000081526004016105de90612042565b60405180910390fd5b6002600481905550600554821115610634576040517f08c379a000000000000000000000000000000000000000000000000000000000815260040161062b906120ae565b60405180910390fd5b6006600086815260200190815260200160002060009054906101000a900460ff1615610695576040517f08c379a000000000000000000000000000000000000000000000000000000000815260040161068c9061211a565b60405180910390fd5b61069e86610925565b6106dd576040517f08c379a00000000000000000000000000000000000000000000000000000000081526004016106d490612186565b60405180910390fd5b7f000000000000000000000000000000000000000000000000000000000000000073ffffffffffffffffffffffffffffffffffffffff1663f398789b8a8a8a6040518060c001604052808c60001c81526020018b60001c81526020018a73ffffffffffffffffffffffffffffffffffffffff1681526020018973ffffffffffffffffffffffffffffffffffffffff168152602001888152602001878152506040518563ffffffff1660e01b815260040161079a9493929190612329565b602060405180830381865afa1580156107b7573d6000803e3d6000fd5b505050506040513d601f19601f820116820180604052508101906107db919061239c565b61081a576040517f08c379a000000000000000000000000000000000000000000000000000000000815260040161081190612415565b60405180910390fd5b60016006600087815260200190815260200160002060006101000a81548160ff021916908315150217905550610852848484846115ab565b8273ffffffffffffffffffffffffffffffffffffffff167fe9e508bad6d4c3227e881ca19068f099da81b5164dd6d62b2eaf1e8bc6c3493185878560405161089c93929190612444565b60405180910390a26001600481905550505050505050505050565b7f000000000000000000000000000000000000000000000000000000000000000081565b60006108e6826117a7565b9050919050565b7f30644e72e131a029b85045b68181585d2833e84879b9709143e1f593f000000181565b60008054906101000a900463ffffffff1681565b60008060001b820361093a57600090506109bd565b6000600360009054906101000a900463ffffffff16905060008190505b600260008263ffffffff168152602001908152602001600020548403610982576001925050506109bd565b60008163ffffffff160361099557601e90505b80806109a0906124aa565b9150508163ffffffff168163ffffffff1603610957576000925050505b919050565b60076020528060005260406000206000915054906101000a900460ff1681565b60055481565b60007f30644e72e131a029b85045b68181585d2833e84879b9709143e1f593f00000018360001c10610a4f576040517f08c379a0000000000000000000000000000000000000000000000000000000008152600401610a469061251f565b60405180910390fd5b7f30644e72e131a029b85045b68181585d2833e84879b9709143e1f593f00000018260001c10610ab4576040517f08c379a0000000000000000000000000000000000000000000000000000000008152600401610aab906125b1565b60405180910390fd5b60008360001c905060008573ffffffffffffffffffffffffffffffffffffffff16633f1a1187838360006040518463ffffffff1660e01b8152600401610afc9392919061260c565b6040805180830381865afa158015610b18573d6000803e3d6000fd5b505050506040513d601f19601f82011682018060405250810190610b3c9190612658565b80925081935050507f30644e72e131a029b85045b68181585d2833e84879b9709143e1f593f000000180610b7357610b72612698565b5b8460001c830891508573ffffffffffffffffffffffffffffffffffffffff16633f1a1187838360006040518463ffffffff1660e01b8152600401610bb99392919061260c565b6040805180830381865afa158015610bd5573d6000803e3d6000fd5b505050506040513d601f19601f82011682018060405250810190610bf99190612658565b80925081935050508160001b925050509392505050565b600360009054906101000a900463ffffffff1681565b60608282905067ffffffffffffffff811115610c4557610c446126c7565b5b604051908082528060200260200182016040528015610c735781602001602082028036833780820191505090505b50905060005b83839050811015610ce057610ca6848483818110610c9a57610c996126f6565b5b90506020020135610e6c565b15610cd3576001828281518110610cc057610cbf6126f6565b5b6020026020010190151590811515815250505b8080600101915050610c79565b5092915050565b600260045403610d2c576040517f08c379a0000000000000000000000000000000000000000000000000000000008152600401610d2390612042565b60405180910390fd5b60026004819055506007600082815260200190815260200160002060009054906101000a900460ff1615610d95576040517f08c379a0000000000000000000000000000000000000000000000000000000008152600401610d8c90612797565b60405180910390fd5b6000610da0826117a7565b905060016007600084815260200190815260200160002060006101000a81548160ff021916908315150217905550610dd66119c1565b817fa945e51eec50ab98c161376f0db4cf2aeba3ec92755fe2fcd388bdbbb80ff1968242604051610e089291906127b7565b60405180910390a250600160048190555050565b600060026000600360009054906101000a900463ffffffff1663ffffffff16815260200190815260200160002054905090565b60026020528060005260406000206000915090505481565b601e81565b60006006600083815260200190815260200160002060009054906101000a900460ff169050919050565b6000808203610eca577f2fe54c60d3acabf3343a35b6eba15db4821b340f76e741e2249685ed4899af6c60001b9050611530565b60018203610efd577f256a6135777eee2fd26f54b8b7037a25439d5235caee224154186d2b8a52e31d60001b9050611530565b60028203610f30577f1151949895e82ab19924de92c40a3d6f7bcb60d92b00504b8199613683f0c20060001b9050611530565b60038203610f63577f20121ee811489ff8d61f09fb89e313f14959a0f28bb428a20dba6b0b068b3bdb60001b9050611530565b60048203610f96577f0a89ca6ffa14cc462cfedb842c30ed221a50a3d6bf022a6a57dc82ab24c157c960001b9050611530565b60058203610fc9577f24ca05c2b5cd42e890d6be94c68d0689f4f21c9cec9c0f13fe41d566dfb5495960001b9050611530565b60068203610ffc577f1ccb97c932565a92c60156bdba2d08f3bf1377464e025cee765679e604a7315c60001b9050611530565b6007820361102f577f19156fbd7d1a8bf5cba8909367de1b624534ebab4f0f79e003bccdd1b182bdb460001b9050611530565b60088203611062577f261af8c1f0912e465744641409f622d466c3920ac6e5ff37e36604cb11dfff8060001b9050611530565b60098203611094577e58459724ff6ca5a1652fcbc3e82b93895cf08e975b19beab3f54c217d1c00760001b9050611530565b600a82036110c7577f1f04ef20dee48d39984d8eabe768a70eafa6310ad20849d4573c3c40c2ad1e3060001b9050611530565b600b82036110fa577f1bea3dec5dab51567ce7e200a30f7ba6d4276aeaa53e2686f962a46c66d511e560001b9050611530565b600c820361112d577f0ee0f941e2da4b9e31c3ca97a40d8fa9ce68d97c084177071b3cb46cd3372f0f60001b9050611530565b600d8203611160577f1ca9503e8935884501bbaf20be14eb4c46b89772c97b96e3b2ebf3a36a948bbd60001b9050611530565b600e8203611193577f133a80e30697cd55d8f7d4b0965b7be24057ba5dc3da898ee2187232446cb10860001b9050611530565b600f82036111c6577f13e6d8fc88839ed76e182c2a779af5b2c0da9dd18c90427a644f7e148a6253b660001b9050611530565b601082036111f9577f1eb16b057a477f4bc8f572ea6bee39561098f78f15bfb3699dcbb7bd8db6185460001b9050611530565b6011820361122c577f0da2cb16a1ceaabf1c16b838f7a9e3f2a3a3088d9e0a6debaa748114620696ea60001b9050611530565b6012820361125f577f24a3b3d822420b14b5d8cb6c28a574f01e98ea9e940551d2ebd75cee12649f9d60001b9050611530565b60138203611292577f198622acbd783d1b0d9064105b1fc8e4d8889de95c4c519b3f635809fe6afc0560001b9050611530565b601482036112c5577f29d7ed391256ccc3ea596c86e933b89ff339d25ea8ddced975ae2fe30b5296d460001b9050611530565b601582036112f8577f19be59f2f0413ce78c0c3703a3a5451b1d7f39629fa33abd11548a76065b296760001b9050611530565b6016820361132b577f1ff3f61797e538b70e619310d33f2a063e7eb59104e112e95738da1254dc345360001b9050611530565b6017820361135e577f10c16ae9959cf8358980d9dd9616e48228737310a10e2b6b731c1a548f036c4860001b9050611530565b60188203611391577f0ba433a63174a90ac20992e75e3095496812b652685b5e1a2eae0b1bf4e8fcd160001b9050611530565b601982036113c4577f019ddb9df2bc98d987d0dfeca9d2b643deafab8f7036562e627c3667266a044c60001b9050611530565b601a82036113f7577f2d3c88b23175c5a5565db928414c66d1912b11acf974b2e644caaac04739ce9960001b9050611530565b601b820361142a577f2eab55f6ae4e66e32c5189eed5c470840863445760f5ed7e7b69b2a62600f35460001b9050611530565b601c820361145c577e2df37a2642621802383cf952bf4dd1f32e05433beeb1fd41031fb7eace979d60001b9050611530565b601d820361148f577f104aeb41435db66c3e62feccc1d6f5d98d0a0ed75d1374db457cf462e3a1f42760001b9050611530565b601e82036114c2577f1f3c6fd858e9a7d4b0d1f38e256a09d81d5a5e3c963987e2d4b814cfab7c6ebb60001b9050611530565b601f82036114f5577f2c7a07d20dff79d01fecedc1134284a8d08436606c93693b67e333f671bf69cc60001b9050611530565b6040517f08c379a00000000000000000000000000000000000000000000000000000000081526004016115279061282c565b60405180910390fd5b919050565b7f2fe54c60d3acabf3343a35b6eba15db4821b340f76e741e2249685ed4899af6c81565b7f000000000000000000000000000000000000000000000000000000000000000081565b60016020528060005260406000206000915090505481565b600360049054906101000a900463ffffffff1681565b600034146115ee576040517f08c379a00000000000000000000000000000000000000000000000000000000081526004016115e5906128be565b60405180910390fd5b60008114611631576040517f08c379a000000000000000000000000000000000000000000000000000000000815260040161162890612950565b60405180910390fd5b60008473ffffffffffffffffffffffffffffffffffffffff16836005546116589190612970565b604051611664906129d5565b60006040518083038185875af1925050503d80600081146116a1576040519150601f19603f3d011682016040523d82523d6000602084013e6116a6565b606091505b50509050806116ea576040517f08c379a00000000000000000000000000000000000000000000000000000000081526004016116e190612a5c565b60405180910390fd5b60008311156117a0578373ffffffffffffffffffffffffffffffffffffffff1683604051611717906129d5565b60006040518083038185875af1925050503d8060008114611754576040519150601f19603f3d011682016040523d82523d6000602084013e611759565b606091505b5050809150508061179f576040517f08c379a000000000000000000000000000000000000000000000000000000000815260040161179690612aee565b60405180910390fd5b5b5050505050565b600080600360049054906101000a900463ffffffff16905060008054906101000a900463ffffffff1660026117dc9190612c41565b63ffffffff168163ffffffff1603611829576040517f08c379a000000000000000000000000000000000000000000000000000000000815260040161182090612ce2565b60405180910390fd5b6000819050600084905060008060005b60008054906101000a900463ffffffff1663ffffffff168163ffffffff16101561191757600060028661186c9190612d02565b63ffffffff16036118ae578392506118898163ffffffff16610e96565b915083600160008363ffffffff168152602001908152602001600020819055506118ce565b600160008263ffffffff1681526020019081526020016000205492508391505b6118f97f000000000000000000000000000000000000000000000000000000000000000084846109e8565b93506002856119089190612d33565b94508080600101915050611839565b506000601e6001600360009054906101000a900463ffffffff1661193b9190612d64565b6119459190612d02565b905080600360006101000a81548163ffffffff021916908363ffffffff16021790555083600260008363ffffffff168152602001908152602001600020819055506001866119939190612d64565b600360046101000a81548163ffffffff021916908363ffffffff160217905550859650505050505050919050565b6005543414611a05576040517f08c379a00000000000000000000000000000000000000000000000000000000081526004016119fc90612e0e565b60405180910390fd5b565b600080fd5b600080fd5b6000819050919050565b611a2481611a11565b8114611a2f57600080fd5b50565b600081359050611a4181611a1b565b92915050565b600060208284031215611a5d57611a5c611a07565b5b6000611a6b84828501611a32565b91505092915050565b60008115159050919050565b611a8981611a74565b82525050565b6000602082019050611aa46000830184611a80565b92915050565b600080fd5b600081905082602060020282011115611acb57611aca611aaa565b5b92915050565b600081905082604060020282011115611aed57611aec611aaa565b5b92915050565b600073ffffffffffffffffffffffffffffffffffffffff82169050919050565b6000611b1e82611af3565b9050919050565b611b2e81611b13565b8114611b3957600080fd5b50565b600081359050611b4b81611b25565b92915050565b6000819050919050565b611b6481611b51565b8114611b6f57600080fd5b50565b600081359050611b8181611b5b565b92915050565b60008060008060008060008060006101c08a8c031215611baa57611ba9611a07565b5b6000611bb88c828d01611aaf565b9950506040611bc98c828d01611ad1565b98505060c0611bda8c828d01611aaf565b975050610100611bec8c828d01611a32565b965050610120611bfe8c828d01611a32565b955050610140611c108c828d01611b3c565b945050610160611c228c828d01611b3c565b935050610180611c348c828d01611b72565b9250506101a0611c468c828d01611b72565b9150509295985092959850929598565b6000819050919050565b6000611c7b611c76611c7184611af3565b611c56565b611af3565b9050919050565b6000611c8d82611c60565b9050919050565b6000611c9f82611c82565b9050919050565b611caf81611c94565b82525050565b6000602082019050611cca6000830184611ca6565b92915050565b600063ffffffff82169050919050565b611ce981611cd0565b82525050565b6000602082019050611d046000830184611ce0565b92915050565b611d1381611b51565b82525050565b6000602082019050611d2e6000830184611d0a565b92915050565b6000611d3f82611b13565b9050919050565b611d4f81611d34565b8114611d5a57600080fd5b50565b600081359050611d6c81611d46565b92915050565b600080600060608486031215611d8b57611d8a611a07565b5b6000611d9986828701611d5d565b9350506020611daa86828701611a32565b9250506040611dbb86828701611a32565b9150509250925092565b611dce81611a11565b82525050565b6000602082019050611de96000830184611dc5565b92915050565b600080fd5b600080fd5b60008083601f840112611e0f57611e0e611def565b5b8235905067ffffffffffffffff811115611e2c57611e2b611df4565b5b602083019150836020820283011115611e4857611e47611aaa565b5b9250929050565b60008060208385031215611e6657611e65611a07565b5b600083013567ffffffffffffffff811115611e8457611e83611a0c565b5b611e9085828601611df9565b92509250509250929050565b600081519050919050565b600082825260208201905092915050565b6000819050602082019050919050565b611ed181611a74565b82525050565b6000611ee38383611ec8565b60208301905092915050565b6000602082019050919050565b6000611f0782611e9c565b611f118185611ea7565b9350611f1c83611eb8565b8060005b83811015611f4d578151611f348882611ed7565b9750611f3f83611eef565b925050600181019050611f20565b5085935050505092915050565b60006020820190508181036000830152611f748184611efc565b905092915050565b600060208284031215611f9257611f91611a07565b5b6000611fa084828501611b72565b91505092915050565b6000611fb482611c82565b9050919050565b611fc481611fa9565b82525050565b6000602082019050611fdf6000830184611fbb565b92915050565b600082825260208201905092915050565b7f5265656e7472616e637947756172643a207265656e7472616e742063616c6c00600082015250565b600061202c601f83611fe5565b915061203782611ff6565b602082019050919050565b6000602082019050818103600083015261205b8161201f565b9050919050565b7f4665652065786365656473207472616e736665722076616c7565000000000000600082015250565b6000612098601a83611fe5565b91506120a382612062565b602082019050919050565b600060208201905081810360008301526120c78161208b565b9050919050565b7f546865206e6f746520686173206265656e20616c7265616479207370656e7400600082015250565b6000612104601f83611fe5565b915061210f826120ce565b602082019050919050565b60006020820190508181036000830152612133816120f7565b9050919050565b7f43616e6e6f742066696e6420796f7572206d65726b6c6520726f6f7400000000600082015250565b6000612170601c83611fe5565b915061217b8261213a565b602082019050919050565b6000602082019050818103600083015261219f81612163565b9050919050565b82818337505050565b6121bb604083836121a6565b5050565b600060029050919050565b600081905092915050565b6000819050919050565b6121eb604083836121a6565b5050565b60006121fb83836121df565b60408301905092915050565b600082905092915050565b6000604082019050919050565b612228816121bf565b61223281846121ca565b925061223d826121d5565b8060005b83811015612276576122538284612207565b61225d87826121ef565b965061226883612212565b925050600181019050612241565b505050505050565b600060069050919050565b600081905092915050565b6000819050919050565b6122a781611b51565b82525050565b60006122b9838361229e565b60208301905092915050565b6000602082019050919050565b6122db8161227e565b6122e58184612289565b92506122f082612294565b8060005b8381101561232157815161230887826122ad565b9650612313836122c5565b9250506001810190506122f4565b505050505050565b60006101c08201905061233f60008301876121af565b61234c604083018661221f565b61235960c08301856121af565b6123676101008301846122d2565b95945050505050565b61237981611a74565b811461238457600080fd5b50565b60008151905061239681612370565b92915050565b6000602082840312156123b2576123b1611a07565b5b60006123c084828501612387565b91505092915050565b7f496e76616c69642077697468647261772070726f6f6600000000000000000000600082015250565b60006123ff601683611fe5565b915061240a826123c9565b602082019050919050565b6000602082019050818103600083015261242e816123f2565b9050919050565b61243e81611b13565b82525050565b60006060820190506124596000830186612435565b6124666020830185611dc5565b6124736040830184611d0a565b949350505050565b7f4e487b7100000000000000000000000000000000000000000000000000000000600052601160045260246000fd5b60006124b582611cd0565b9150600082036124c8576124c761247b565b5b600182039050919050565b7f5f6c6566742073686f756c6420626520696e7369646520746865206669656c64600082015250565b6000612509602083611fe5565b9150612514826124d3565b602082019050919050565b60006020820190508181036000830152612538816124fc565b9050919050565b7f5f72696768742073686f756c6420626520696e7369646520746865206669656c60008201527f6400000000000000000000000000000000000000000000000000000000000000602082015250565b600061259b602183611fe5565b91506125a68261253f565b604082019050919050565b600060208201905081810360008301526125ca8161258e565b9050919050565b6000819050919050565b60006125f66125f16125ec846125d1565b611c56565b611b51565b9050919050565b612606816125db565b82525050565b60006060820190506126216000830186611d0a565b61262e6020830185611d0a565b61263b60408301846125fd565b949350505050565b60008151905061265281611b5b565b92915050565b6000806040838503121561266f5761266e611a07565b5b600061267d85828601612643565b925050602061268e85828601612643565b9150509250929050565b7f4e487b7100000000000000000000000000000000000000000000000000000000600052601260045260246000fd5b7f4e487b7100000000000000000000000000000000000000000000000000000000600052604160045260246000fd5b7f4e487b7100000000000000000000000000000000000000000000000000000000600052603260045260246000fd5b7f54686520636f6d6d69746d656e7420686173206265656e207375626d6974746560008201527f6400000000000000000000000000000000000000000000000000000000000000602082015250565b6000612781602183611fe5565b915061278c82612725565b604082019050919050565b600060208201905081810360008301526127b081612774565b9050919050565b60006040820190506127cc6000830185611ce0565b6127d96020830184611d0a565b9392505050565b7f496e646578206f7574206f6620626f756e647300000000000000000000000000600082015250565b6000612816601383611fe5565b9150612821826127e0565b602082019050919050565b6000602082019050818103600083015261284581612809565b9050919050565b7f4d6573736167652076616c756520697320737570706f73656420746f2062652060008201527f7a65726f20666f722045544820696e7374616e63650000000000000000000000602082015250565b60006128a8603583611fe5565b91506128b38261284c565b604082019050919050565b600060208201905081810360008301526128d78161289b565b9050919050565b7f526566756e642076616c756520697320737570706f73656420746f206265207a60008201527f65726f20666f722045544820696e7374616e6365000000000000000000000000602082015250565b600061293a603483611fe5565b9150612945826128de565b604082019050919050565b600060208201905081810360008301526129698161292d565b9050919050565b600061297b82611b51565b915061298683611b51565b925082820390508181111561299e5761299d61247b565b5b92915050565b600081905092915050565b50565b60006129bf6000836129a4565b91506129ca826129af565b600082019050919050565b60006129e0826129b2565b9150819050919050565b7f7061796d656e7420746f205f726563697069656e7420646964206e6f7420676f60008201527f2074687275000000000000000000000000000000000000000000000000000000602082015250565b6000612a46602583611fe5565b9150612a51826129ea565b604082019050919050565b60006020820190508181036000830152612a7581612a39565b9050919050565b7f7061796d656e7420746f205f72656c6179657220646964206e6f7420676f207460008201527f6872750000000000000000000000000000000000000000000000000000000000602082015250565b6000612ad8602383611fe5565b9150612ae382612a7c565b604082019050919050565b60006020820190508181036000830152612b0781612acb565b9050919050565b60008160011c9050919050565b6000808291508390505b6001851115612b6557808604811115612b4157612b4061247b565b5b6001851615612b505780820291505b8081029050612b5e85612b0e565b9450612b25565b94509492505050565b600082612b7e5760019050612c3a565b81612b8c5760009050612c3a565b8160018114612ba25760028114612bac57612bdb565b6001915050612c3a565b60ff841115612bbe57612bbd61247b565b5b8360020a915084821115612bd557612bd461247b565b5b50612c3a565b5060208310610133831016604e8410600b8410161715612c105782820a905083811115612c0b57612c0a61247b565b5b612c3a565b612c1d8484846001612b1b565b92509050818404811115612c3457612c3361247b565b5b81810290505b9392505050565b6000612c4c82611cd0565b9150612c5783611cd0565b9250612c6863ffffffff8484612b6e565b905092915050565b7f4d65726b6c6520747265652069732066756c6c2e204e6f206d6f7265206c656160008201527f7665732063616e20626520616464656400000000000000000000000000000000602082015250565b6000612ccc603083611fe5565b9150612cd782612c70565b604082019050919050565b60006020820190508181036000830152612cfb81612cbf565b9050919050565b6000612d0d82611cd0565b9150612d1883611cd0565b925082612d2857612d27612698565b5b828206905092915050565b6000612d3e82611cd0565b9150612d4983611cd0565b925082612d5957612d58612698565b5b828204905092915050565b6000612d6f82611cd0565b9150612d7a83611cd0565b9250828201905063ffffffff811115612d9657612d9561247b565b5b92915050565b7f506c656173652073656e6420606d697844656e6f6d696e6174696f6e6020455460008201527f4820616c6f6e672077697468207472616e73616374696f6e0000000000000000602082015250565b6000612df8603883611fe5565b9150612e0382612d9c565b604082019050919050565b60006020820190508181036000830152612e2781612deb565b905091905056fea2646970667358221220f98d1b4b18f9390e2becfb212d6e2ddff3ab6fdcb8593b40ebc1c6de93a8033a64736f6c634300081c0033",
  "linkReferences": {},
  "deployedLinkReferences": {}
}